{
  "contractName": "Lottery",
  "abi": [
    {
      "constant": true,
      "inputs": [],
      "name": "userInterf",
      "outputs": [
        {
          "name": "",
          "type": "address"
        }
      ],
      "payable": false,
      "stateMutability": "view",
      "type": "function"
    },
    {
      "constant": true,
      "inputs": [
        {
          "name": "",
          "type": "address"
        }
      ],
      "name": "accountAccept",
      "outputs": [
        {
          "name": "",
          "type": "bool"
        }
      ],
      "payable": false,
      "stateMutability": "view",
      "type": "function"
    },
    {
      "constant": true,
      "inputs": [],
      "name": "manager",
      "outputs": [
        {
          "name": "",
          "type": "address"
        }
      ],
      "payable": false,
      "stateMutability": "view",
      "type": "function"
    },
    {
      "constant": true,
      "inputs": [],
      "name": "owner",
      "outputs": [
        {
          "name": "",
          "type": "address"
        }
      ],
      "payable": false,
      "stateMutability": "view",
      "type": "function"
    },
    {
      "constant": false,
      "inputs": [
        {
          "name": "newOwner",
          "type": "address"
        }
      ],
      "name": "transferOwnership",
      "outputs": [],
      "payable": false,
      "stateMutability": "nonpayable",
      "type": "function"
    },
    {
      "constant": true,
      "inputs": [
        {
          "name": "",
          "type": "uint256"
        }
      ],
      "name": "players",
      "outputs": [
        {
          "name": "",
          "type": "address"
        }
      ],
      "payable": false,
      "stateMutability": "view",
      "type": "function"
    },
    {
      "inputs": [
        {
          "name": "_number",
          "type": "uint16"
        },
        {
          "name": "_userContract",
          "type": "address"
        },
        {
          "name": "_factoryOwner",
          "type": "address"
        }
      ],
      "payable": false,
      "stateMutability": "nonpayable",
      "type": "constructor"
    },
    {
      "anonymous": false,
      "inputs": [
        {
          "indexed": false,
          "name": "Msg",
          "type": "string"
        },
        {
          "indexed": false,
          "name": "winner",
          "type": "address"
        }
      ],
      "name": "lotteryExecute",
      "type": "event"
    },
    {
      "anonymous": false,
      "inputs": [
        {
          "indexed": false,
          "name": "Msg",
          "type": "string"
        },
        {
          "indexed": false,
          "name": "value",
          "type": "uint256"
        }
      ],
      "name": "Message",
      "type": "event"
    },
    {
      "anonymous": false,
      "inputs": [
        {
          "indexed": false,
          "name": "Msg",
          "type": "string"
        }
      ],
      "name": "userNotRegistered",
      "type": "event"
    },
    {
      "anonymous": false,
      "inputs": [
        {
          "indexed": true,
          "name": "previousOwner",
          "type": "address"
        },
        {
          "indexed": true,
          "name": "newOwner",
          "type": "address"
        }
      ],
      "name": "OwnershipTransferred",
      "type": "event"
    },
    {
      "constant": false,
      "inputs": [],
      "name": "enter",
      "outputs": [],
      "payable": true,
      "stateMutability": "payable",
      "type": "function"
    },
    {
      "constant": false,
      "inputs": [],
      "name": "pickWinner",
      "outputs": [],
      "payable": false,
      "stateMutability": "nonpayable",
      "type": "function"
    },
    {
      "constant": true,
      "inputs": [],
      "name": "getPlayers",
      "outputs": [
        {
          "name": "",
          "type": "address[]"
        }
      ],
      "payable": false,
      "stateMutability": "view",
      "type": "function"
    },
    {
      "constant": false,
      "inputs": [],
      "name": "checkStatus",
      "outputs": [
        {
          "name": "",
          "type": "bool"
        }
      ],
      "payable": false,
      "stateMutability": "nonpayable",
      "type": "function"
    },
    {
      "constant": false,
      "inputs": [],
      "name": "bye_bye",
      "outputs": [],
      "payable": false,
      "stateMutability": "nonpayable",
      "type": "function"
    }
  ],
  "bytecode": "0x608060405234801561001057600080fd5b50604051606080611427833981018060405281019080805190602001909291908051906020019092919080519060200190929190505050336000806101000a81548173ffffffffffffffffffffffffffffffffffffffff021916908373ffffffffffffffffffffffffffffffffffffffff16021790555082600060146101000a81548161ffff021916908361ffff1602179055506100bc3361010f640100000000026401000000009004565b6100d48161010f640100000000026401000000009004565b6100ec8261016a640100000000026401000000009004565b6000600360006101000a81548160ff021916908315150217905550505050610272565b6001600460008373ffffffffffffffffffffffffffffffffffffffff1673ffffffffffffffffffffffffffffffffffffffff16815260200190815260200160002060006101000a81548160ff02191690831515021790555050565b6000809054906101000a900473ffffffffffffffffffffffffffffffffffffffff1673ffffffffffffffffffffffffffffffffffffffff163373ffffffffffffffffffffffffffffffffffffffff1614151561022e576040517f08c379a00000000000000000000000000000000000000000000000000000000081526004018080602001828103825260148152602001807f5573746564206e6f20657320656c206f776e657200000000000000000000000081525060200191505060405180910390fd5b80600360016101000a81548173ffffffffffffffffffffffffffffffffffffffff021916908373ffffffffffffffffffffffffffffffffffffffff16021790555050565b6111a6806102816000396000f3006080604052600436106100af576000357c0100000000000000000000000000000000000000000000000000000000900463ffffffff168063068dc52c146100b45780631fc6e06c146100cb5780633b7104f214610122578063436c7e5614610151578063481c6a75146101ac5780635d495aea146102035780638b5b9ccc1461021a5780638da5cb5b14610286578063e97dcb62146102dd578063f2fde38b146102e7578063f71d96cb1461032a575b600080fd5b3480156100c057600080fd5b506100c9610397565b005b3480156100d757600080fd5b506100e0610432565b604051808273ffffffffffffffffffffffffffffffffffffffff1673ffffffffffffffffffffffffffffffffffffffff16815260200191505060405180910390f35b34801561012e57600080fd5b50610137610458565b604051808215151515815260200191505060405180910390f35b34801561015d57600080fd5b50610192600480360381019080803573ffffffffffffffffffffffffffffffffffffffff169060200190929190505050610478565b604051808215151515815260200191505060405180910390f35b3480156101b857600080fd5b506101c1610498565b604051808273ffffffffffffffffffffffffffffffffffffffff1673ffffffffffffffffffffffffffffffffffffffff16815260200191505060405180910390f35b34801561020f57600080fd5b506102186104be565b005b34801561022657600080fd5b5061022f6106b8565b6040518080602001828103825283818151815260200191508051906020019060200280838360005b83811015610272578082015181840152602081019050610257565b505050509050019250505060405180910390f35b34801561029257600080fd5b5061029b610746565b604051808273ffffffffffffffffffffffffffffffffffffffff1673ffffffffffffffffffffffffffffffffffffffff16815260200191505060405180910390f35b6102e561076b565b005b3480156102f357600080fd5b50610328600480360381019080803573ffffffffffffffffffffffffffffffffffffffff169060200190929190505050610d5b565b005b34801561033657600080fd5b5061035560048036038101908080359060200190929190505050610f82565b604051808273ffffffffffffffffffffffffffffffffffffffff1673ffffffffffffffffffffffffffffffffffffffff16815260200191505060405180910390f35b3360001515600460003373ffffffffffffffffffffffffffffffffffffffff1673ffffffffffffffffffffffffffffffffffffffff16815260200190815260200160002060009054906101000a900460ff161515141515156103f857600080fd5b6000809054906101000a900473ffffffffffffffffffffffffffffffffffffffff1673ffffffffffffffffffffffffffffffffffffffff16ff5b600360019054906101000a900473ffffffffffffffffffffffffffffffffffffffff1681565b60008060028054905011156104705760019050610475565b600090505b90565b60046020528060005260406000206000915054906101000a900460ff1681565b600160009054906101000a900473ffffffffffffffffffffffffffffffffffffffff1681565b60003360001515600460003373ffffffffffffffffffffffffffffffffffffffff1673ffffffffffffffffffffffffffffffffffffffff16815260200190815260200160002060009054906101000a900460ff1615151415151561052157600080fd5b60028080549050610530610fc0565b81151561053957fe5b0681548110151561054657fe5b9060005260206000200160009054906101000a900473ffffffffffffffffffffffffffffffffffffffff1691508173ffffffffffffffffffffffffffffffffffffffff166108fc3073ffffffffffffffffffffffffffffffffffffffff16319081150290604051600060405180830381858888f193505050501580156105d0573d6000803e3d6000fd5b507f0b3b1ad12542209e2ff5293052f09733727ed55c51ca79e01d44f34f1f2eabf08260405180806020018373ffffffffffffffffffffffffffffffffffffffff1673ffffffffffffffffffffffffffffffffffffffff168152602001828103825260138152602001807f486179206e7565766f2047616e61646f722121000000000000000000000000008152506020019250505060405180910390a1600060405190808252806020026020018201604052801561069d5781602001602082028038833980820191505090505b50600290805190602001906106b39291906110ad565b505050565b6060600280548060200260200160405190810160405280929190818152602001828054801561073c57602002820191906000526020600020905b8160009054906101000a900473ffffffffffffffffffffffffffffffffffffffff1673ffffffffffffffffffffffffffffffffffffffff16815260200190600101908083116106f2575b5050505050905090565b6000809054906101000a900473ffffffffffffffffffffffffffffffffffffffff1681565b3360001515600360019054906101000a900473ffffffffffffffffffffffffffffffffffffffff1673ffffffffffffffffffffffffffffffffffffffff166329db90a6836040518263ffffffff167c0100000000000000000000000000000000000000000000000000000000028152600401808273ffffffffffffffffffffffffffffffffffffffff1673ffffffffffffffffffffffffffffffffffffffff168152602001915050602060405180830381600087803b15801561082d57600080fd5b505af1158015610841573d6000803e3d6000fd5b505050506040513d602081101561085757600080fd5b8101908080519060200190929190505050151514156108ff577f5118f5db0285aa0196dd8c4bc29e08f7568c2db7b2beff6e14f45bf82ceed8fc6040518080602001828103825260408152602001807f456c207573756172696f206e6f20657374c3a1207265676973747261646f2e2081526020017f506f72206661766f722c2070726f63656461206120726567697374726172736581525060400191505060405180910390a15b60011515600360019054906101000a900473ffffffffffffffffffffffffffffffffffffffff1673ffffffffffffffffffffffffffffffffffffffff166329db90a6836040518263ffffffff167c0100000000000000000000000000000000000000000000000000000000028152600401808273ffffffffffffffffffffffffffffffffffffffff1673ffffffffffffffffffffffffffffffffffffffff168152602001915050602060405180830381600087803b1580156109c057600080fd5b505af11580156109d4573d6000803e3d6000fd5b505050506040513d60208110156109ea57600080fd5b81019080805190602001909291905050501515141515610a98576040517f08c379a00000000000000000000000000000000000000000000000000000000081526004018080602001828103825260408152602001807f456c207573756172696f206e6f20657374c3a1207265676973747261646f2e2081526020017f506f72206661766f722c2070726f63656461206120726567697374726172736581525060400191505060405180910390fd5b600360009054906101000a900460ff16151515610b43576040517f08c379a00000000000000000000000000000000000000000000000000000000081526004018080602001828103825260228152602001807f4c61206c6f746572c3ad61206e6f20616365707461206d61732061707565737481526020017f617300000000000000000000000000000000000000000000000000000000000081525060400191505060405180910390fd5b6706f05b59d3b2000034141515610be8576040517f08c379a000000000000000000000000000000000000000000000000000000000815260040180806020018281038252602e8152602001807f456c2076616c6f72206465206c61207061727469636970616369c3b36e20657381526020017f20646520302e352065746865727300000000000000000000000000000000000081525060400191505060405180910390fd5b60023390806001815401808255809150509060018203906000526020600020016000909192909190916101000a81548173ffffffffffffffffffffffffffffffffffffffff021916908373ffffffffffffffffffffffffffffffffffffffff160217905550507f36e0c9dbcd34d231cafa0ac14a2b11c4ada79bee352749417d025c5ec87ed1fd346040518080602001838152602001828103825260418152602001807f55737465642068612061647175697269646f20756e612070617274696369706181526020017f6369c3b36e20656e206c61206c6f746572696120706f722076616c6f7220646581526020017f3a000000000000000000000000000000000000000000000000000000000000008152506060019250505060405180910390a1600060149054906101000a900461ffff1661ffff166002805490501115610d58576001600360006101000a81548160ff021916908315150217905550610d4f33611052565b610d576104be565b5b50565b6000809054906101000a900473ffffffffffffffffffffffffffffffffffffffff1673ffffffffffffffffffffffffffffffffffffffff163373ffffffffffffffffffffffffffffffffffffffff16141515610e1f576040517f08c379a00000000000000000000000000000000000000000000000000000000081526004018080602001828103825260148152602001807f5573746564206e6f20657320656c206f776e657200000000000000000000000081525060200191505060405180910390fd5b600073ffffffffffffffffffffffffffffffffffffffff168173ffffffffffffffffffffffffffffffffffffffff1614151515610ec4576040517f08c379a000000000000000000000000000000000000000000000000000000000815260040180806020018281038252601a8152602001807f61206120612e2e2e6c612070616c61627261206dc3a16769636100000000000081525060200191505060405180910390fd5b8073ffffffffffffffffffffffffffffffffffffffff166000809054906101000a900473ffffffffffffffffffffffffffffffffffffffff1673ffffffffffffffffffffffffffffffffffffffff167f8be0079c531659141344cd1fd0a4f28419497f9722a3daafe3b4186f6b6457e060405160405180910390a3806000806101000a81548173ffffffffffffffffffffffffffffffffffffffff021916908373ffffffffffffffffffffffffffffffffffffffff16021790555050565b600281815481101515610f9157fe5b906000526020600020016000915054906101000a900473ffffffffffffffffffffffffffffffffffffffff1681565b60004442600260405180848152602001838152602001828054801561103a57602002820191906000526020600020905b8160009054906101000a900473ffffffffffffffffffffffffffffffffffffffff1673ffffffffffffffffffffffffffffffffffffffff1681526020019060010190808311610ff0575b50509350505050604051809103902060019004905090565b6001600460008373ffffffffffffffffffffffffffffffffffffffff1673ffffffffffffffffffffffffffffffffffffffff16815260200190815260200160002060006101000a81548160ff02191690831515021790555050565b828054828255906000526020600020908101928215611126579160200282015b828111156111255782518260006101000a81548173ffffffffffffffffffffffffffffffffffffffff021916908373ffffffffffffffffffffffffffffffffffffffff160217905550916020019190600101906110cd565b5b5090506111339190611137565b5090565b61117791905b8082111561117357600081816101000a81549073ffffffffffffffffffffffffffffffffffffffff02191690555060010161113d565b5090565b905600a165627a7a723058208c26837fd50e04255c62da801f56baa4ffcb8c20d314fde7a89f514be5a7feb80029",
  "source": "pragma solidity ^0.4.24;\n\nimport \"./Ownable.sol\";\nimport \"./SafeMath.sol\";\n//import \"openzeppelin-solidity/contracts/math/SafeMath.sol\";\n\ncontract lotteryInterface{\n    function pickWinner() public;\n    function addMember(address _address) public;\n    function checkStatus() external returns (bool);\n    function bye_bye() external;\n}\n\ncontract userInterface{\n    function consultUser (address _client) external returns(bool);\n}\n\ncontract LotteryFact is Ownable{\n    uint16 minimumNumberOfBets;\n    uint lastLottery = 0;\n    address userContractAddress;\n    mapping (uint => address) public lottoHist;\n\n    lotteryInterface public LottoInterf;\n\n    event newLotteryEvent (string msg, uint hist);\n\n    constructor(address _userContract){\n        minimumNumberOfBets = 5;\n\tuserContractAddress = _userContract;\n        lottoHist[lastLottery] = new Lottery (minimumNumberOfBets, userContractAddress, msg.sender);\n    }\n\n    function newLottery() public onlyOwner{\n        setInterfaceLottery(lottoHist[lastLottery]);\n        require (LottoInterf.checkStatus() == false, \"La lotería anterior aún está en juego, ejecútela antes de iniciar una nueva\");\n        //killPrev();\n        lastLottery++;\n        lottoHist[lastLottery] = new Lottery (minimumNumberOfBets, userContractAddress, msg.sender);\n        setInterfaceLottery(lottoHist[lastLottery]);\n\temit newLotteryEvent (\"Se ha creado una nueva lotería con id:\", lastLottery);\n    }\n\n    function changeMinimumNumberOfBets (uint16 _new) public onlyOwner{\n        minimumNumberOfBets = _new;\n    }\n\n    function execute() public onlyOwner{\n        setInterfaceLottery(lottoHist[lastLottery]);\n        LottoInterf.pickWinner();\n    }\n\n    function killPrev() internal onlyOwner{\n        LottoInterf.bye_bye();\n    }\n\n    function setInterfaceLottery (address _address) internal onlyOwner{\n        LottoInterf = lotteryInterface(_address);\n    }\n\n}\n\ncontract Lottery is Ownable{\n    uint16 minimumNumberOfBets;\n\n    address public manager;\n    address[] public players;\n\n    bool isStopped;\n\n    userInterface public userInterf;\n\n    event lotteryExecute (string Msg, address winner);\n    event Message (string Msg, uint value);\n    event userNotRegistered (string Msg);\n\n    mapping (address => bool) public accountAccept;\n\n    constructor (uint16 _number, address _userContract, address _factoryOwner){\n        minimumNumberOfBets = _number;\n\taddMember(msg.sender);\n\taddMember(_factoryOwner);\n\tsetUserLottery(_userContract);\n\tisStopped = false;\n    }\n\n    modifier onlyAccept(address _address){\n        require(accountAccept[msg.sender] != false);\n        _;\n    }\n\n    modifier onlyUsers(address _address){\n\tif (userInterf.consultUser(_address) == false)\n\t{\n\t\temit userNotRegistered (\"El usuario no está registrado. Por favor, proceda a registrarse\");\n\t}\n\trequire(userInterf.consultUser(_address) == true, \"El usuario no está registrado. Por favor, proceda a registrarse\");\n\t_;\n    }\n\n    modifier stopped{\n\trequire(!isStopped, \"La lotería no acepta mas apuestas\");\n        _;\n    }\n\n    function addMember(address _address) internal{\n        accountAccept[_address] = true;\n    }\n\n    function enter() public payable onlyUsers(msg.sender) stopped{ //Hacerla onlyUsersRegistered, que compruebe en el contrato Users\n        require(msg.value == .5 ether, \"El valor de la participación es de 0.5 ethers\");\n        players.push(msg.sender); \n        emit Message (\"Usted ha adquirido una participación en la loteria por valor de:\", msg.value);\n\tif (players.length > minimumNumberOfBets)\n        {\n            isStopped = true;\n\t    addMember(msg.sender); //Cualquier usuario que haya efectuado una apuesta puede desencadenar el sorteo, pero para evitar muchos permisos innecesarios se hace solo con el número detonante\n            pickWinner(); //Verificar llamada interna\n        }\n    }\n\n    function random() private view returns (uint){\n        return uint(keccak256(block.difficulty, now, players));\n    }\n\n    function pickWinner() public onlyAccept(msg.sender){\n        address winner = players[random() % players.length];\n        winner.transfer(this.balance);\n        emit lotteryExecute (\"Hay nuevo Ganador!!\", winner);\n        players = new address[](0);\n    }\n\n    function getPlayers() public view returns(address[]) {\n        return players;\n    }\n\n    function checkStatus() external returns (bool){\n        if (players.length > 0)\n        { return true; } else {return false;} \n    }\n\n    function setUserLottery (address _address) internal onlyOwner{\n        userInterf = userInterface(_address);\n    }\n\n    function bye_bye() external onlyAccept(msg.sender) {\n        selfdestruct(owner);\n    }\n}\n\n",
  "sourcePath": "/home/javi/Adhara.io/1b-Desarrollo_final/contracts/Lottery.sol",
  "compiler": {
    "name": "solc",
    "version": "0.4.24+commit.e67f0147.Emscripten.clang"
  },
  "schemaVersion": "2.0.1",
  "updatedAt": "2019-03-23T16:08:20.141Z"
}