{
  "contractName": "Lottery",
  "abi": [
    {
      "constant": true,
      "inputs": [],
      "name": "userInterf",
      "outputs": [
        {
          "name": "",
          "type": "address"
        }
      ],
      "payable": false,
      "stateMutability": "view",
      "type": "function"
    },
    {
      "constant": true,
      "inputs": [
        {
          "name": "",
          "type": "address"
        }
      ],
      "name": "accountAccept",
      "outputs": [
        {
          "name": "",
          "type": "bool"
        }
      ],
      "payable": false,
      "stateMutability": "view",
      "type": "function"
    },
    {
      "constant": true,
      "inputs": [],
      "name": "manager",
      "outputs": [
        {
          "name": "",
          "type": "address"
        }
      ],
      "payable": false,
      "stateMutability": "view",
      "type": "function"
    },
    {
      "constant": true,
      "inputs": [],
      "name": "owner",
      "outputs": [
        {
          "name": "",
          "type": "address"
        }
      ],
      "payable": false,
      "stateMutability": "view",
      "type": "function"
    },
    {
      "constant": false,
      "inputs": [
        {
          "name": "newOwner",
          "type": "address"
        }
      ],
      "name": "transferOwnership",
      "outputs": [],
      "payable": false,
      "stateMutability": "nonpayable",
      "type": "function"
    },
    {
      "constant": true,
      "inputs": [
        {
          "name": "",
          "type": "uint256"
        }
      ],
      "name": "players",
      "outputs": [
        {
          "name": "",
          "type": "address"
        }
      ],
      "payable": false,
      "stateMutability": "view",
      "type": "function"
    },
    {
      "inputs": [
        {
          "name": "_number",
          "type": "uint16"
        },
        {
          "name": "_userContract",
          "type": "address"
        }
      ],
      "payable": false,
      "stateMutability": "nonpayable",
      "type": "constructor"
    },
    {
      "anonymous": false,
      "inputs": [
        {
          "indexed": false,
          "name": "Msg",
          "type": "string"
        },
        {
          "indexed": false,
          "name": "winner",
          "type": "address"
        }
      ],
      "name": "lotteryExecute",
      "type": "event"
    },
    {
      "anonymous": false,
      "inputs": [
        {
          "indexed": false,
          "name": "Msg",
          "type": "string"
        },
        {
          "indexed": false,
          "name": "value",
          "type": "uint256"
        }
      ],
      "name": "Message",
      "type": "event"
    },
    {
      "anonymous": false,
      "inputs": [
        {
          "indexed": true,
          "name": "previousOwner",
          "type": "address"
        },
        {
          "indexed": true,
          "name": "newOwner",
          "type": "address"
        }
      ],
      "name": "OwnershipTransferred",
      "type": "event"
    },
    {
      "constant": false,
      "inputs": [],
      "name": "enter",
      "outputs": [],
      "payable": true,
      "stateMutability": "payable",
      "type": "function"
    },
    {
      "constant": true,
      "inputs": [],
      "name": "getPlayers",
      "outputs": [
        {
          "name": "",
          "type": "address[]"
        }
      ],
      "payable": false,
      "stateMutability": "view",
      "type": "function"
    },
    {
      "constant": false,
      "inputs": [],
      "name": "checkStatus",
      "outputs": [
        {
          "name": "",
          "type": "bool"
        }
      ],
      "payable": false,
      "stateMutability": "nonpayable",
      "type": "function"
    },
    {
      "constant": false,
      "inputs": [],
      "name": "bye_bye",
      "outputs": [],
      "payable": false,
      "stateMutability": "nonpayable",
      "type": "function"
    }
  ],
  "bytecode": "0x608060405234801561001057600080fd5b5060405160408061113b8339810180604052810190808051906020019092919080519060200190929190505050336000806101000a81548173ffffffffffffffffffffffffffffffffffffffff021916908373ffffffffffffffffffffffffffffffffffffffff16021790555081600060146101000a81548161ffff021916908361ffff1602179055506100b2336100ec640100000000026401000000009004565b6100ca81610147640100000000026401000000009004565b6000600360006101000a81548160ff02191690831515021790555050506101e6565b6001600460008373ffffffffffffffffffffffffffffffffffffffff1673ffffffffffffffffffffffffffffffffffffffff16815260200190815260200160002060006101000a81548160ff02191690831515021790555050565b6000809054906101000a900473ffffffffffffffffffffffffffffffffffffffff1673ffffffffffffffffffffffffffffffffffffffff163373ffffffffffffffffffffffffffffffffffffffff161415156101a257600080fd5b80600360016101000a81548173ffffffffffffffffffffffffffffffffffffffff021916908373ffffffffffffffffffffffffffffffffffffffff16021790555050565b610f46806101f56000396000f3006080604052600436106100a4576000357c0100000000000000000000000000000000000000000000000000000000900463ffffffff168063068dc52c146100a95780631fc6e06c146100c05780633b7104f214610117578063436c7e5614610146578063481c6a75146101a15780638b5b9ccc146101f85780638da5cb5b14610264578063e97dcb62146102bb578063f2fde38b146102c5578063f71d96cb14610308575b600080fd5b3480156100b557600080fd5b506100be610375565b005b3480156100cc57600080fd5b506100d5610410565b604051808273ffffffffffffffffffffffffffffffffffffffff1673ffffffffffffffffffffffffffffffffffffffff16815260200191505060405180910390f35b34801561012357600080fd5b5061012c610436565b604051808215151515815260200191505060405180910390f35b34801561015257600080fd5b50610187600480360381019080803573ffffffffffffffffffffffffffffffffffffffff169060200190929190505050610456565b604051808215151515815260200191505060405180910390f35b3480156101ad57600080fd5b506101b6610476565b604051808273ffffffffffffffffffffffffffffffffffffffff1673ffffffffffffffffffffffffffffffffffffffff16815260200191505060405180910390f35b34801561020457600080fd5b5061020d61049c565b6040518080602001828103825283818151815260200191508051906020019060200280838360005b83811015610250578082015181840152602081019050610235565b505050509050019250505060405180910390f35b34801561027057600080fd5b5061027961052a565b604051808273ffffffffffffffffffffffffffffffffffffffff1673ffffffffffffffffffffffffffffffffffffffff16815260200191505060405180910390f35b6102c361054f565b005b3480156102d157600080fd5b50610306600480360381019080803573ffffffffffffffffffffffffffffffffffffffff1690602001909291905050506109ac565b005b34801561031457600080fd5b5061033360048036038101908080359060200190929190505050610b01565b604051808273ffffffffffffffffffffffffffffffffffffffff1673ffffffffffffffffffffffffffffffffffffffff16815260200191505060405180910390f35b3360001515600460003373ffffffffffffffffffffffffffffffffffffffff1673ffffffffffffffffffffffffffffffffffffffff16815260200190815260200160002060009054906101000a900460ff161515141515156103d657600080fd5b6000809054906101000a900473ffffffffffffffffffffffffffffffffffffffff1673ffffffffffffffffffffffffffffffffffffffff16ff5b600360019054906101000a900473ffffffffffffffffffffffffffffffffffffffff1681565b600080600280549050111561044e5760019050610453565b600090505b90565b60046020528060005260406000206000915054906101000a900460ff1681565b600160009054906101000a900473ffffffffffffffffffffffffffffffffffffffff1681565b6060600280548060200260200160405190810160405280929190818152602001828054801561052057602002820191906000526020600020905b8160009054906101000a900473ffffffffffffffffffffffffffffffffffffffff1673ffffffffffffffffffffffffffffffffffffffff16815260200190600101908083116104d6575b5050505050905090565b6000809054906101000a900473ffffffffffffffffffffffffffffffffffffffff1681565b3360011515600360019054906101000a900473ffffffffffffffffffffffffffffffffffffffff1673ffffffffffffffffffffffffffffffffffffffff166329db90a6836040518263ffffffff167c0100000000000000000000000000000000000000000000000000000000028152600401808273ffffffffffffffffffffffffffffffffffffffff1673ffffffffffffffffffffffffffffffffffffffff168152602001915050602060405180830381600087803b15801561061157600080fd5b505af1158015610625573d6000803e3d6000fd5b505050506040513d602081101561063b57600080fd5b810190808051906020019092919050505015151415156106e9576040517f08c379a00000000000000000000000000000000000000000000000000000000081526004018080602001828103825260408152602001807f456c207573756172696f206e6f20657374c3a1207265676973747261646f2e2081526020017f506f72206661766f722c2070726f63656461206120726567697374726172736581525060400191505060405180910390fd5b600360009054906101000a900460ff16151515610794576040517f08c379a00000000000000000000000000000000000000000000000000000000081526004018080602001828103825260228152602001807f4c61206c6f746572c3ad61206e6f20616365707461206d61732061707565737481526020017f617300000000000000000000000000000000000000000000000000000000000081525060400191505060405180910390fd5b6706f05b59d3b2000034141515610839576040517f08c379a000000000000000000000000000000000000000000000000000000000815260040180806020018281038252602e8152602001807f456c2076616c6f72206465206c61207061727469636970616369c3b36e20657381526020017f20646520302e352065746865727300000000000000000000000000000000000081525060400191505060405180910390fd5b60023390806001815401808255809150509060018203906000526020600020016000909192909190916101000a81548173ffffffffffffffffffffffffffffffffffffffff021916908373ffffffffffffffffffffffffffffffffffffffff160217905550507f36e0c9dbcd34d231cafa0ac14a2b11c4ada79bee352749417d025c5ec87ed1fd346040518080602001838152602001828103825260418152602001807f55737465642068612061647175697269646f20756e612070617274696369706181526020017f6369c3b36e20656e206c61206c6f746572696120706f722076616c6f7220646581526020017f3a000000000000000000000000000000000000000000000000000000000000008152506060019250505060405180910390a1600060149054906101000a900461ffff1661ffff1660028054905011156109a9576001600360006101000a81548160ff0219169083151502179055506109a033610b3f565b6109a8610b9a565b5b50565b6000809054906101000a900473ffffffffffffffffffffffffffffffffffffffff1673ffffffffffffffffffffffffffffffffffffffff163373ffffffffffffffffffffffffffffffffffffffff16141515610a0757600080fd5b600073ffffffffffffffffffffffffffffffffffffffff168173ffffffffffffffffffffffffffffffffffffffff1614151515610a4357600080fd5b8073ffffffffffffffffffffffffffffffffffffffff166000809054906101000a900473ffffffffffffffffffffffffffffffffffffffff1673ffffffffffffffffffffffffffffffffffffffff167f8be0079c531659141344cd1fd0a4f28419497f9722a3daafe3b4186f6b6457e060405160405180910390a3806000806101000a81548173ffffffffffffffffffffffffffffffffffffffff021916908373ffffffffffffffffffffffffffffffffffffffff16021790555050565b600281815481101515610b1057fe5b906000526020600020016000915054906101000a900473ffffffffffffffffffffffffffffffffffffffff1681565b6001600460008373ffffffffffffffffffffffffffffffffffffffff1673ffffffffffffffffffffffffffffffffffffffff16815260200190815260200160002060006101000a81548160ff02191690831515021790555050565b60003360001515600460003373ffffffffffffffffffffffffffffffffffffffff1673ffffffffffffffffffffffffffffffffffffffff16815260200190815260200160002060009054906101000a900460ff16151514151515610bfd57600080fd5b600060149054906101000a900461ffff1661ffff16600280549050111515610c2457600080fd5b60028080549050610c33610dbb565b811515610c3c57fe5b06815481101515610c4957fe5b9060005260206000200160009054906101000a900473ffffffffffffffffffffffffffffffffffffffff1691508173ffffffffffffffffffffffffffffffffffffffff166108fc3073ffffffffffffffffffffffffffffffffffffffff16319081150290604051600060405180830381858888f19350505050158015610cd3573d6000803e3d6000fd5b507f0b3b1ad12542209e2ff5293052f09733727ed55c51ca79e01d44f34f1f2eabf08260405180806020018373ffffffffffffffffffffffffffffffffffffffff1673ffffffffffffffffffffffffffffffffffffffff168152602001828103825260138152602001807f486179206e7565766f2047616e61646f722121000000000000000000000000008152506020019250505060405180910390a16000604051908082528060200260200182016040528015610da05781602001602082028038833980820191505090505b5060029080519060200190610db6929190610e4d565b505050565b600044426002604051808481526020018381526020018280548015610e3557602002820191906000526020600020905b8160009054906101000a900473ffffffffffffffffffffffffffffffffffffffff1673ffffffffffffffffffffffffffffffffffffffff1681526020019060010190808311610deb575b50509350505050604051809103902060019004905090565b828054828255906000526020600020908101928215610ec6579160200282015b82811115610ec55782518260006101000a81548173ffffffffffffffffffffffffffffffffffffffff021916908373ffffffffffffffffffffffffffffffffffffffff16021790555091602001919060010190610e6d565b5b509050610ed39190610ed7565b5090565b610f1791905b80821115610f1357600081816101000a81549073ffffffffffffffffffffffffffffffffffffffff021916905550600101610edd565b5090565b905600a165627a7a72305820133d836defdf500b00af928b8c6b13038e1c660e984493dc813c12187ebac1d10029",
  "source": "pragma solidity ^0.4.24;\n\nimport \"./Ownable.sol\";\nimport \"./SafeMath.sol\";\n//import \"openzeppelin-solidity/contracts/math/SafeMath.sol\";\n\ncontract lotteryInterface{\n    function pickWinner() public;\n    function addMember(address _address) public;\n    function checkStatus() external returns (bool);\n    function bye_bye() external;\n}\n\ncontract userInterface{\n    function consultUser (address _client) external returns(bool);\n}\n\ncontract LotteryFact is Ownable{\n    uint16 minimumNumberOfBets;\n    uint lastLottery = 0;\n    address userContractAddress;\n    mapping (uint => address) public lottoHist;\n\n    lotteryInterface public LottoInterf;\n\n    event newLotteryEvent (string msg, uint hist);\n\n    constructor(address _userContract){\n        minimumNumberOfBets = 5;\n\tuserContractAddress = _userContract;\n        lottoHist[lastLottery] = new Lottery (minimumNumberOfBets, userContractAddress);\n    }\n\n    function newLottery() external onlyOwner{\n        setInterfaceLottery(lottoHist[lastLottery]);\n        require (LottoInterf.checkStatus() == false, \"La lotería anterior aún está en juego, ejecútela antes de iniciar una nueva\");\n        //killPrev();\n        lastLottery++;\n        lottoHist[lastLottery] = new Lottery (minimumNumberOfBets, userContractAddress);\n        setInterfaceLottery(lottoHist[lastLottery]);\n\temit newLotteryEvent (\"Se ha creado una nueva lotería con id:\", lastLottery);\n    }\n\n    function changeMinimumNumberOfBets (uint16 _new) public onlyOwner{\n        minimumNumberOfBets = _new;\n    }\n\n    function execute() public onlyOwner{\n        setInterfaceLottery(lottoHist[lastLottery]);\n        LottoInterf.pickWinner();\n    }\n\n    function killPrev() internal onlyOwner{\n        LottoInterf.bye_bye();\n    }\n\n    function setInterfaceLottery (address _address) internal onlyOwner{\n        LottoInterf = lotteryInterface(_address);\n    }\n\n}\n\ncontract Lottery is Ownable{\n    uint16 minimumNumberOfBets;\n\n    address public manager;\n    address[] public players;\n\n    bool isStopped;\n\n    userInterface public userInterf;\n\n    event lotteryExecute (string Msg, address winner);\n    event Message (string Msg, uint value);\n\n    mapping (address => bool) public accountAccept;\n\n    constructor (uint16 _number, address _userContract){\n        minimumNumberOfBets = _number;\n\taddMember(msg.sender);\n\tsetUserLottery(_userContract);\n\tisStopped = false;\n    }\n\n    modifier onlyAccept(address _address){\n        require(accountAccept[msg.sender] != false);\n        _;\n    }\n\n    modifier onlyUsers(address _address){\n\trequire(userInterf.consultUser(_address) == true, \"El usuario no está registrado. Por favor, proceda a registrarse\");\n\t_;\n    }\n\n    modifier stopped{\n\trequire(!isStopped, \"La lotería no acepta mas apuestas\");\n        _;\n    }\n\n    function addMember(address _address) internal{\n        accountAccept[_address] = true;\n    }\n\n    function enter() public payable onlyUsers(msg.sender) stopped{ //Hacerla onlyUsersRegistered, que compruebe en el contrato Users\n        require(msg.value == .5 ether, \"El valor de la participación es de 0.5 ethers\");\n        players.push(msg.sender); \n        emit Message (\"Usted ha adquirido una participación en la loteria por valor de:\", msg.value);\n\tif (players.length > minimumNumberOfBets)\n        {\n            isStopped = true;\n\t    addMember(msg.sender); //Cualquier usuario que haya efectuado una apuesta puede desencadenar el sorteo, pero para evitar muchos permisos innecesarios se hace solo con el número detonante\n            pickWinner(); //Verificar llamada interna\n        }\n    }\n\n    function random() private view returns (uint){\n        return uint(keccak256(block.difficulty, now, players));\n    }\n\n    function pickWinner() internal onlyAccept(msg.sender){\n        require(players.length > minimumNumberOfBets);\n        address winner = players[random() % players.length];\n        winner.transfer(this.balance);\n        emit lotteryExecute (\"Hay nuevo Ganador!!\", winner);\n        players = new address[](0);\n    }\n\n    function getPlayers() public view returns(address[]) {\n        return players;\n    }\n\n    function checkStatus() external returns (bool){\n        if (players.length > 0)\n        { return true; } else {return false;} \n    }\n\n    function setUserLottery (address _address) internal onlyOwner{\n        userInterf = userInterface(_address);\n    }\n\n    function bye_bye() external onlyAccept(msg.sender) {\n        selfdestruct(owner);\n    }\n}\n\n",
  "sourcePath": "/Users/JaviMac/Desktop/Javi/CV/Ofertas Blockchain/Adhara.io/1b-Desarrollo_final/contracts/Lottery.sol",
  "compiler": {
    "name": "solc",
    "version": "0.4.24+commit.e67f0147.Emscripten.clang"
  },
  "schemaVersion": "2.0.1",
  "updatedAt": "2019-03-22T08:34:31.954Z"
}